:020000040800F2
:10000000005000206D0E0008B10E0008B10E00086F
:10001000B10E0008B10E0008B10E0008000000008B
:10002000000000000000000000000000B10E000809
:10003000B10E000800000000B10E0008B10E00086B
:10004000B10E0008B10E0008B10E0008B10E000894
:10005000B10E0008B10E0008B10E0008B10E000884
:10006000B10E0008B10E0008B10E0008B10E000874
:10007000B10E0008B10E0008B10E0008B10E000864
:10008000B10E0008B10E0008B10E0008B10E000854
:10009000B10E0008B10E0008B10E0008B10E000844
:1000A000B10E000821010008B10E0008B10E0008D1
:1000B000B10E0008B10E0008B10E0008B10E000824
:1000C000B10E0008B10E0008B10E0008B10E000814
:1000D000B10E000849010008B10E000895010008A2
:1000E000B10E0008B10E0008B10E000800000000BB
:1000F0000000000000000000000000000000000000
:0C01000000000000000000005FF808F1A3
:10010C0080B500AF00F052F94FF00A0000F064FC2B
:10011C00FEE7C04680B500AF42F60040C4F20100D5
:10012C004FF0010101F0B0FC40F26003C2F2000399
:10013C001B88184600F072FCBD4680BD80B582B0AD
:10014C0000AF4FF00003FB7143F60000C4F2010056
:10015C0040F2255101F064FE0346002B0FD043F60C
:10016C000000C4F2010040F2255101F0C3FE43F639
:10017C000000C4F2010001F01DFE0346FB7107F103
:10018C000807BD4680BDC04680B582B000AF4FF0B9
:10019C000003FB7144F60000C4F2000040F225514C
:1001AC0001F03EFE0346002B00F0FC8044F60000FC
:1001BC00C4F2000040F2255101F09CFE44F6000010
:1001CC00C4F2000001F0F6FD0346FB7140F2480357
:1001DC00C2F200031B78002B0BD1FB797E2B40F075
:1001EC00E18040F24803C2F200034FF001021A70A2
:1001FC00D8E040F24803C2F200031B78012B3BD13C
:10020C0040F25103C2F200031B78194640F2490335
:10021C00C2F20003FA795A5440F25103C2F20003BD
:10022C001B78012B1AD140F24903C2F200031A7851
:10023C0040F26E03C2F200031A7040F24903C2F29C
:10024C0000035A7840F26F03C2F200031A7040F2B6
:10025C004803C2F200034FF002021A7040F251033D
:10026C00C2F200031B7803F10103DAB240F251032E
:10027C00C2F200031A7095E040F24803C2F2000388
:10028C001B78022B40F08E8040F25203C2F2000326
:10029C001B78194640F24C03C2F20003FA795A5407
:1002AC0040F25203C2F200031B7803F10103DAB2ED
:1002BC0040F25203C2F200031A7040F25203C2F22F
:1002CC0000031A7840F26F03C2F200031B789A42C3
:1002DC0068D140F26E03C2F200031B78012B61D18E
:1002EC0040F23803C2F200034FF001021A7040F2E0
:1002FC003603C2F2000345F260421A8040F24C030E
:10030C00C2F200031B784FEA03239AB240F24C036B
:10031C00C2F200035B7813449AB240F26003C2F25B
:10032C0000031A8040F24C03C2F200039B784FEAA0
:10033C0003239AB240F24C03C2F20003DB7813445D
:10034C009AB240F26803C2F200031A8040F25E03D4
:10035C00C2F200031B881A4640F26003C2F200038B
:10036C001B881A444FEAD27313444FEA63039AB2C0
:10037C0040F26403C2F200031A8040F24803C2F256
:10038C0000034FF000021A7040F25103C2F2000356
:10039C004FF000021A7040F25203C2F200034FF009
:1003AC0000021A7007F10807BD4680BD80B500AF8A
:1003BC0040F20700C0F204004FF0010100F0B8FF5A
:1003CC004FF03D004FF0010100F086FF4FF49040DC
:1003DC004FF0010100F080FF4EF21002CEF200024D
:1003EC0040F20C03C2F20003196844F6D353C1F275
:1003FC006203A3FB01034FEA931353604EF2100305
:10040C00CEF200034FF005021A6040F2C403C2F2B0
:10041C0000034FF01802DA7040F2C403C2F200037A
:10042C004FF004021A8040F2C403C2F200034FF0F2
:10043C0003029A7040F60000C4F2010040F2C401BD
:10044C00C2F2000100F0A0FF40F2C403C2F20003AC
:10045C004FF01002DA7040F2C403C2F200034FF006
:10046C0008021A8040F2C403C2F200034FF00302E8
:10047C009A7040F60000C4F2010040F2C401C2F2CE
:10048C00000100F081FF40F60000C4F201004FF0C3
:10049C00000101F05DF840F2C403C2F200034FF01A
:1004AC001802DA7040F2C403C2F200034FF4007277
:1004BC001A8040F2C403C2F200034FF003029A7098
:1004CC0040F60000C4F2010040F2C401C2F2000187
:1004DC0000F05AFF40F2C403C2F200034FF00402D2
:1004EC00DA7040F2C403C2F200034FF480621A8047
:1004FC0040F60000C4F2010040F2C401C2F2000157
:10050C0000F042FF40F2C403C2F200034FF01802A5
:10051C00DA7040F2C403C2F200034FF480621A8016
:10052C0040F2C403C2F200034FF003029A7040F68B
:10053C000040C4F2010040F2C401C2F2000100F01C
:10054C0023FF40F2C403C2F200034FF00402DA703E
:10055C0040F2C403C2F200034FF400621A8040F66A
:10056C000040C4F2010040F2C401C2F2000100F0EC
:10057C000BFF40F2C403C2F200034FF01002DA701A
:10058C0040F2C403C2F200034FF400721A8040F22E
:10059C00C403C2F200034FF003029A7040F600400D
:1005AC00C4F2010040F2C401C2F2000100F0ECFE02
:1005BC0040F60040C4F201004FF0000100F0C8FF0B
:1005CC0040F2C403C2F200034FF01002DA7040F2A2
:1005DC00C403C2F200034FF001021A8040F2C403BC
:1005EC00C2F200034FF002029A7041F20000C4F212
:1005FC00010040F2C401C2F2000100F0C5FE41F25C
:10060C000000C4F201004FF0000100F0A1FF40F225
:10061C00C403C2F200034FF002021A8040F2C4037A
:10062C00C2F200034FF00402DA7040F2C403C2F2CB
:10063C0000034FF003029A7041F20000C4F2010073
:10064C0040F2C401C2F2000100F09EFE40F60040F0
:10065C00C0F21A004FF0010100F088FF40F2C40311
:10066C00C2F200034FF01802DA7040F2C403C2F277
:10067C0000034FF400721A8040F2C403C2F200036C
:10068C004FF003029A7041F20000C4F2010040F2F4
:10069C00C401C2F2000100F077FE41F20000C4F286
:1006AC0001004FF0000100F053FF40F2C403C2F20E
:1006BC0000034FF01002DA7040F2C403C2F20003E0
:1006CC004FF008021A8040F2C403C2F200034FF04C
:1006DC0003029A7041F20000C4F2010040F2C4011E
:1006EC00C2F2000100F050FE41F20000C4F2010021
:1006FC004FF0000100F02CFF40F2C403C2F20003E3
:10070C004FF01002DA7040F2C403C2F200034FF053
:10071C0004021A8040F2C403C2F200034FF0030239
:10072C009A7041F20040C4F2010040F2C401C2F2DE
:10073C00000100F029FE41F20040C4F201004FF02C
:10074C00000100F005FF40F2B003C2F200034FF0CD
:10075C000002DA8040F2B003C2F200034FF0000254
:10076C005A8040F2B003C2F2000340F66F029A8046
:10077C0040F2B003C2F200034FF013021A8042F6AB
:10078C000040C4F2010040F2B001C2F2000100F0DE
:10079C0081FF42F60040C4F201004FF001014FF01E
:1007AC00010201F04BF942F60040C4F201004FF097
:1007BC00010101F01BF940F2B003C2F200034FF04B
:1007CC000002DA8040F2B003C2F200034FF00002E4
:1007DC005A8040F2B003C2F2000340F237429A80D2
:1007EC0040F2B003C2F200034FF000021A804FF047
:1007FC00804040F2B001C2F2000100F04BFF40F229
:10080C008203C2F200034FF060021A8040F28203AE
:10081C00C2F200034FF001025A8040F28203C2F28E
:10082C0000034FF00002DA804FF0804040F282016A
:10083C00C2F2000100F0BEFF4FF080404FF001010A
:10084C0001F0D4F840F29403C2F200034FF4E13209
:10085C001A6040F29403C2F200034FF000029A8136
:10086C0040F29403C2F200034FF00C025A8140F2A2
:10087C009403C2F200034FF000021A8140F2940379
:10088C00C2F200034FF00002DA8040F29403C2F28D
:10089C0000034FF000029A8043F60000C4F20100FE
:1008AC0040F29401C2F2000101F000F943F600009D
:1008BC00C4F2010040F225514FF0010201F00EFA92
:1008CC0043F60000C4F201004FF0010101F0DEF923
:1008DC0044F60000C4F2000040F29401C2F20001A0
:1008EC0001F0E4F844F60000C4F2000040F2255197
:1008FC004FF0010201F0F2F944F60000C4F20000DE
:10090C004FF0010101F0C2F940F2A403C2F200035E
:10091C004FF019021A7040F2A403C2F200034FF018
:10092C000102DA7040F2A403C2F200034FF000029D
:10093C005A7040F2A403C2F200034FF000029A7006
:10094C0040F2A400C2F2000001F0F6FA40F2A40357
:10095C00C2F200034FF025021A7040F2A403C2F257
:10096C0000034FF00102DA7040F2A403C2F200035C
:10097C004FF003025A7040F2A403C2F200034FF08E
:10098C0004029A7040F2A400C2F2000001F0D4FA02
:10099C0040F2A403C2F200034FF027021A7040F297
:1009AC00A403C2F200034FF00102DA7040F2A40378
:1009BC00C2F200034FF003025A7040F2A403C2F2D9
:1009CC0000034FF004029A7040F2A400C2F200003F
:1009DC0001F0B2FABD4680BD80B483B000AF786040
:1009EC0014E04EF21003CEF200039B68B3F57A7F4D
:1009FC00F7D84EF21003CEF200039A6840F2E733B8
:100A0C009A42F6D97B6803F1FF337B607B68002B3D
:100A1C00E7D107F10C07BD4680BC704780B582B0AA
:100A2C0000AF0346FB8040F23803C2F200031B7890
:100A3C003B603B68012B04D03B68022B00F0AB8180
:100A4C00B1E141F20040C4F201004FF0000100F0AE
:100A5C007FFD40F25E03C2F200031A8840F2640389
:100A6C00C2F200031B889A4254D240F60040C4F2F2
:100A7C0001004FF4007100F06BFD40F23603C2F23E
:100A8C0000031A8840F20603C2F200031B889A4244
:100A9C0012D940F23603C2F200031A8840F20A035C
:100AAC00C2F200031B88C3EB02039AB240F2360376
:100ABC00C2F200031A8009E040F20603C2F20003FE
:100ACC001A8840F23603C2F200031A8040F2360351
:100ADC00C2F200031B88184600F06AF940F200428B
:100AEC00C4F2000240F23603C2F200031B884FEA44
:100AFC0053039BB2A2F8403040F25E03C2F20003F3
:100B0C001B8803F101039AB240F25E03C2F20003A8
:100B1C001A8048E140F25E03C2F200031A88FB8897
:100B2C0093425FD940F25E03C2F200031A8840F28E
:100B3C006403C2F200031B889A4253D940F600406A
:100B4C00C4F201004FF4007100F002FD40F23603D4
:100B5C00C2F200031A8840F20803C2F200031B8899
:100B6C009A4211D240F23603C2F200031A8840F2C4
:100B7C000A03C2F200031B8813449AB240F23603F4
:100B8C00C2F200031A8009E040F20803C2F200032B
:100B9C001A8840F23603C2F200031A8040F2360380
:100BAC00C2F200031B88184600F002F940F2004222
:100BBC00C4F2000240F23603C2F200031B884FEA73
:100BCC0053039BB2A2F8403040F25E03C2F2000322
:100BDC001B8803F101039AB240F25E03C2F20003D8
:100BEC001A80E0E040F25E03C2F200031A8840F281
:100BFC006403C2F200031B889A4254D940F60040A9
:100C0C00C4F201004FF0000100F0A2FC40F23603E8
:100C1C00C2F200031A8840F20603C2F200031B88DA
:100C2C009A4212D940F23603C2F200031A8840F2FB
:100C3C000A03C2F200031B88C3EB02039AB240F210
:100C4C003603C2F200031A8009E040F20603C2F236
:100C5C0000031A8840F23603C2F200031A8040F2F5
:100C6C003603C2F200031B88184600F0A1F840F2CC
:100C7C000042C4F2000240F23603C2F200031B88A9
:100C8C004FEA53039BB2A2F8403040F25E03C2F22B
:100C9C0000031B8803F1FF339AB240F25E03C2F2E9
:100CAC0000031A807FE040F25E03C2F200031A8850
:100CBC0040F26403C2F200031B889A425BD240F2FA
:100CCC005E03C2F200031A88FB88934253D240F6AB
:100CDC000040C4F201004FF0000100F039FC40F27A
:100CEC003603C2F200031A8840F20803C2F2000372
:100CFC001B889A4211D240F23603C2F200031A88C2
:100D0C0040F20A03C2F200031B8813449AB240F269
:100D1C003603C2F200031A8009E040F20803C2F263
:100D2C0000031A8840F23603C2F200031A8040F224
:100D3C003603C2F200031B88184600F039F840F263
:100D4C000042C4F2000240F23603C2F200031B88D8
:100D5C004FEA53039BB2A2F8403040F25E03C2F25A
:100D6C0000031B8803F1FF339AB240F25E03C2F218
:100D7C0000031A8017E040F20043C4F200034FF066
:100D8C000002A3F8402040F23803C2F200034FF0F7
:100D9C0002021A7007E041F20040C4F201004FF069
:100DAC00040100F0D5FB07F10807BD4680BDC04625
:100DBC0080B582B000AF0346FB8040F2B003C2F2B4
:100DCC0000034FF00002DA8040F2B003C2F20003DD
:100DDC004FF000025A80FB8803F1FF339AB240F2C5
:100DEC00B003C2F200039A8040F2B003C2F20003D7
:100DFC004FF000021A8040F20040C4F2000040F2B2
:100E0C00B001C2F2000100F045FC40F28203C2F2D4
:100E1C0000034FF060021A8040F28203C2F200031A
:100E2C004FF001025A8040F28203C2F200034FF0ED
:100E3C000002DA8040F20040C4F2000040F282016D
:100E4C00C2F2000100F056FD40F20040C4F2000076
:100E5C004FF0010100F0CAFD07F10807BD4680BD47
:100E6C00002103E00A4B5B584350043109480A4BFC
:100E7C0042189A42F6D3094A02E0002342F8043B96
:100E8C00074B9A42F9D300F00FF8FFF739F9704786
:100E9C003021000800000020340000203400002025
:100EAC00C8000020FEE7000080B500AF41F2000250
:100EBC00C4F2020241F20003C4F202031B6843F0C5
:100ECC000103136041F20002C4F2020241F200037A
:100EDC00C4F20203596840F20003CFF6FF0301EAA3
:100EEC000303536041F20002C4F2020241F2000318
:100EFC00C4F202031B6823F0847323F48033136061
:100F0C0041F20002C4F2020241F20003C4F20203F5
:100F1C001B6823F48023136041F20002C4F2020226
:100F2C0041F20003C4F202035B6823F4FE03536036
:100F3C0041F20003C4F202034FF41F029A6000F066
:100F4C0009F84EF60053CEF200034FF000629A609F
:100F5C00BD4680BD80B500AF00F002F8BD4680BD37
:100F6C0080B483B000AF4FF000037B604FF0000300
:100F7C003B6041F20002C4F2020241F20003C4F2EF
:100F8C0002031B6843F48033136041F20003C4F284
:100F9C0002031B6803F400333B607B6803F101031D
:100FAC007B603B68002B03D17B68B3F5A06FECD161
:100FBC0041F20003C4F202031B6803F40033002B5C
:100FCC0003D04FF001033B6002E04FF000033B60A5
:100FDC003B68012B40F0928042F20002C4F2020204
:100FEC0042F20003C4F202031B6843F010031360C7
:100FFC0042F20002C4F2020242F20003C4F2020303
:10100C001B6823F00303136042F20002C4F20202D5
:10101C0042F20003C4F202031B6843F002031360A4
:10102C0041F20002C4F2020241F20003C4F20203D4
:10103C005B68536041F20002C4F2020241F2000309
:10104C00C4F202035B68536041F20002C4F2020274
:10105C0041F20003C4F202035B6843F48063536003
:10106C0041F20002C4F2020241F20003C4F2020394
:10107C005B6823F47C13536041F20002C4F2020259
:10108C0041F20003C4F202035B6843F4E8135360BB
:10109C0041F20002C4F2020241F20003C4F2020364
:1010AC001B6843F08073136041F20003C4F2020327
:1010BC001B6803F00073002BF6D041F20002C4F25F
:1010CC00020241F20003C4F202035B6823F0030343
:1010DC00536041F20002C4F2020241F20003C4F276
:1010EC0002035B6843F00203536041F20003C4F255
:1010FC0002035B6803F00C03082BF6D107F10C0715
:10110C00BD4680BC7047C04680B487B000AF7860E5
:10111C004FF00003BB604FF00003FB604FF0000387
:10112C003B614FF000037B6141F20003C4F2020308
:10113C005B6803F00C03BB60BB683B603B68042B33
:10114C000CD03B68082B10D03B68002B4DD17A6833
:10115C0041F20023C0F27A0313604CE07A6841F24A
:10116C000023C0F27A03136045E041F20003C4F29D
:10117C0002035B6803F47013FB6041F20003C4F2DA
:10118C0002035B6803F480333B61FB684FEA9343D3
:10119C0003F10203FB603B69002B09D1FA6840F6AE
:1011AC000013C0F23D0303FB02F27B681A6022E0DD
:1011BC0041F20003C4F202035B6803F40033002B1A
:1011CC0009D0FA6840F60013C0F23D0303FB02F2AB
:1011DC007B681A600FE0FA6841F20023C0F27A03D0
:1011EC0003FB02F27B681A6005E07A6841F2002387
:1011FC00C0F27A03136041F20003C4F202035B688D
:10120C0003F0F003BB60BB684FEA1313BB60BA6812
:10121C0040F22003C2F200039B5CDBB27B617B6873
:10122C001A687B6922FA03F27B685A6041F2000368
:10123C00C4F202035B6803F4E063BB60BB684FEA73
:10124C001323BB60BA6840F22003C2F200039B5C1C
:10125C00DBB27B617B685A687B6922FA03F27B689C
:10126C009A6041F20003C4F202035B6803F460531A
:10127C00BB60BB684FEAD323BB60BA6840F2200363
:10128C00C2F200039B5CDBB27B617B685A687B69B2
:10129C0022FA03F27B68DA6041F20003C4F2020323
:1012AC005B6803F44043BB60BB684FEA9333BB609D
:1012BC00BA6840F23003C2F200039B5CDBB27B6184
:1012CC007B68DA687B69B2FBF3F27B681A6107F121
:1012DC001C07BD4680BC704780B483B000AF7860FB
:1012EC000B46FB70FB78002B0DD041F20002C4F2D0
:1012FC00020241F20003C4F2020399697B6841EADD
:10130C00030393610EE041F20002C4F2020241F2C7
:10131C000003C4F2020399697B686FEA030301EAD4
:10132C000303936107F10C07BD4680BC7047C046B0
:10133C0080B483B000AF78600B46FB70FB78002B59
:10134C000DD041F20002C4F2020241F20003C4F2D9
:10135C000203D9697B6841EA0303D3610EE041F2D1
:10136C000002C4F2020241F20003C4F20203D96982
:10137C007B686FEA030301EA0303D36107F10C07EF
:10138C00BD4680BC7047C04680B489B000AF786061
:10139C0039604FF00003BB604FF00003FB604FF06F
:1013AC0000033B614FF000037B614FF00003BB6116
:1013BC004FF00003FB613B68DB7803F00F03BB606D
:1013CC003B68DB7803F01003002B06D03B689B785E
:1013DC001A46BB6843EA0203BB603B681B8803F0F8
:1013EC00FF03002B51D07B681B68BB614FF00003DF
:1013FC003B6144E03A694FF0010303FA02F37B616D
:10140C003B681B881A467B6902EA0303FB60FA6897
:10141C007B699A422FD13B694FEA83037B617A69DE
:10142C004FF00F0303FA02F3FB61FB696FEA03024F
:10143C00BB6903EA0203BB617A69BB6803FA02F277
:10144C00BB6943EA0203BB613B68DB78282B07D1FD
:10145C003A694FF0010303FA02F27B685A610AE021
:10146C003B68DB78482B06D13A694FF0010303FA4D
:10147C0002F27B681A613B6903F101033B613B6932
:10148C00072BB7D97A68BB6913603B681B88FF2BA5
:10149C0059D97B685B68BB614FF000033B614CE042
:1014AC003B6903F108031A464FF0010303FA02F3F8
:1014BC007B613B681B881A467B6902EA0303FB606D
:1014CC00FA687B699A4234D13B694FEA83037B61AA
:1014DC007A694FF00F0303FA02F3FB61FB696FEAC1
:1014EC000302BB6903EA0203BB617A69BB6803FAB6
:1014FC0002F2BB6943EA0203BB613B68DB78282B31
:10150C0009D13B6903F108031A464FF0010303FAB2
:10151C0002F27B685A613B68DB78482B09D13B6946
:10152C0003F108031A464FF0010303FA02F27B6839
:10153C001A613B6903F101033B613B69072BAFD98E
:10154C007A68BB69536007F12407BD4680BC7047BD
:10155C0080B483B000AF78600B467B807A887B6860
:10156C00DA6007F10C07BD4680BC704780B487B0C9
:10157C0000AF78600B46FB704FF00003BB604FF080
:10158C000003FB604FF000033B614FF000037B61F5
:10159C007B68002B06DA40F20003C4F20103DB691E
:1015AC003B6105E040F20003C4F201035B683B6160
:1015BC007B6803F470234FEA13437B617B684FEA2B
:1015CC0003434FEA1343BB607B6803F44013B3F54A
:1015DC00401F10D13B6923F070633B6140F2000265
:1015EC00C4F2010240F20003C4F201035B6823F071
:1015FC007063536029E07B6803F48013002B11D0D7
:10160C007A694FF0030303FA02F3FB60FB686FEA9D
:10161C0003023B6903EA02033B613B6943F07063DD
:10162C003B6112E07B684FEA53534FEA03131A46AF
:10163C00BB6803FA02F36FEA03023B6903EA020395
:10164C003B613B6943F070633B61FB78002B0CD032
:10165C007B684FEA53534FEA03131A46BB6803FAED
:10166C0002F23B6943EA02033B617B68002B06DA1A
:10167C0040F20003C4F201033A69DA6105E040F27A
:10168C000003C4F201033A695A6007F11C07BD4616
:10169C0080BC704780B485B000AF786039604FF083
:1016AC000003FB817B681B88FB817A6842F6004350
:1016BC00C4F201039A421FD07A6843F20043C4F289
:1016CC0001039A4218D07B68B3F1804F14D07A682A
:1016DC0040F20043C4F200039A420DD07A6840F6FF
:1016EC000003C4F200039A4206D07A6840F6004325
:1016FC00C4F200039A4209D1FB8923F07003FB81E9
:10170C003B685A88FB8942EA0303FB817A6841F201
:10171C000003C4F200039A4210D07A6841F20043ED
:10172C00C4F200039A4209D0FB8923F44073FB8175
:10173C003B68DA88FB8942EA0303FB817A68FB8900
:10174C0013803B689B887A6893853B681B887A6812
:10175C0013857A6842F60043C4F201039A421BD007
:10176C007A6843F20043C4F201039A4214D07A68B7
:10177C0044F20003C4F201039A420DD07A6844F299
:10178C000043C4F201039A4206D07A6844F600037F
:10179C00C4F201039A4203D13B681B7A7A68138620
:1017AC007B684FF001029A8207F11407BD4680BC9A
:1017BC007047C04680B487B000AFF860B9604FF096
:1017CC0000037B824FF00003BB824FF00003FB82CF
:1017DC00FB681B8C9BB27B604FF6FF63C0F200036F
:1017EC00796801EA03037B60FA6879680B46138415
:1017FC00FB681B8CBB82FB689B88FB82FB689B8B0A
:10180C007B827B8A23F070037B827B8A23F0030329
:10181C007B82BB681A887B8A42EA03037B82BB8A81
:10182C0023F40073BB82BB681B894FEA03239AB273
:10183C00BB8A42EA0303BB82BB685B884FEA032383
:10184C009AB2BB8A42EA0303BB82FA6842F60043AF
:10185C00C4F201039A4206D0FA6843F20043C4F280
:10186C0001039A4233D1BB8A23F40063BB82BB6869
:10187C005B894FEA03239AB2BB8A42EA0303BB8219
:10188C00BB8A23F48063BB82BB689B884FEA03232B
:10189C009AB2BB8A42EA0303BB82FB8A23F48053CD
:1018AC00FB82FB8A23F40053FB82BB689B894FEAC3
:1018BC0003139AB2FB8A42EA0303FB82BB68DB89FF
:1018CC004FEA03139AB2FB8A42EA0303FB82FA68DB
:1018DC00FB8A9380FA687B8A9383BB68DB88FA68FF
:1018EC009387FA68BB8A138407F11C07BD4680BC3A
:1018FC007047C04680B487B000AFF860B9604FF055
:10190C0000037B824FF00003BB824FF00003FB828D
:10191C00FB681B8C9BB27B604EF6FF73C0F200031E
:10192C00796801EA03037B60FA6879680B461384D3
:10193C00FB681B8CBB82FB689B88FB82FB689B8BC8
:10194C007B827B8A23F4E0437B827B8A23F4407383
:10195C007B82BB681B884FEA03239AB27B8A42EADC
:10196C0003037B82BB8A23F40053BB82BB681B89B5
:10197C004FEA03339AB2BB8A42EA0303BB82BB68C9
:10198C005B884FEA03339AB2BB8A42EA0303BB82F9
:10199C00FA6842F60043C4F201039A4206D0FA6890
:1019AC0043F20043C4F201039A420CD1FB8A23F4A4
:1019BC008043FB82BB689B894FEA83139AB2FB8AF4
:1019CC0042EA0303FB82FA68FB8A9380FA687B8AFB
:1019DC009383BB68DB88FA68A2F84030FA68BB8A4C
:1019EC00138407F11C07BD4680BC704780B485B0DA
:1019FC0000AFF8600B46FB72FB7A002B08D0FB683B
:101A0C001B889BB243F001039BB2FA6813800FE072
:101A1C00FB681B889BB27B604FF6FE73C0F2000321
:101A2C00796801EA03037B60FA6879680B461380D6
:101A3C0007F11407BD4680BC7047C04680B483B024
:101A4C0000AF78600B467B8013467B707B78002B55
:101A5C0009D07B689B899AB27B8842EA03039BB2CC
:101A6C007A6893810BE07B689B899AB27B886FEADA
:101A7C0003039BB202EA03039BB27A68938107F1DA
:101A8C000C07BD4680BC704780B483B000AF786053
:101A9C000B467B807B886FEA03039BB27A681382C8
:101AAC0007F10C07BD4680BC7047C04680B58CB0B2
:101ABC0000AF786039604FF00003FB614FF000031A
:101ACC003B624FF000037B624FF00003BB624FF0B0
:101ADC000003FB627B68FB627B681B8A9BB2FB6129
:101AEC00FA694CF6FF73C0F2000302EA0303FB61D0
:101AFC003B68DB881A46FB6943EA0203FB61FB691E
:101B0C009BB27A6813827B689B899BB2FB61FA69F2
:101B1C004EF6F313C0F2000302EA0303FB613B68C9
:101B2C009A883B681B8942EA03039AB23B685B893B
:101B3C0042EA03039BB21A46FB6943EA0203FB61C8
:101B4C00FB699BB27A6893817B689B8A9BB2FB6131
:101B5C00FA694FF6FF43C0F2000302EA0303FB618C
:101B6C003B689B891A46FB6943EA0203FB61FB69EC
:101B7C009BB27A68938207F108031846FFF7C4FA00
:101B8C00FA6A43F60003C4F201039A4202D17B695C
:101B9C003B6201E03B693B627B689B899BB21BB259
:101BAC00002B11DA396A0B464FEAC3024FEA820363
:101BBC00C2EB030303EB01023B681B684FEA4303D0
:101BCC00B2FBF3F37B6210E0396A0B464FEAC302B7
:101BDC004FEA8203C2EB030303EB01023B681B6871
:101BEC004FEA8303B2FBF3F37B627A6A48F21F532A
:101BFC00C5F2EB13A3FB02134FEA53134FEA031383
:101C0C00FB61FB694FEA13134FEA83034FEA83022C
:101C1C0013444FEA83021A447B6AC2EB0303BB6290
:101C2C007B689B899BB21BB2002B13DABB6A4FEA11
:101C3C00C30303F1320248F21F53C5F2EB13A3FBAB
:101C4C0002134FEA531303F00702FB6943EA020342
:101C5C00FB6112E0BB6A4FEA031303F1320248F254
:101C6C001F53C5F2EB13A3FB02134FEA531303F0FC
:101C7C000F02FB6943EA0203FB61FB699BB27A68C2
:101C8C00138107F13007BD4680BDC04680B485B0D6
:101C9C0000AFF8600B46FB72FB7A002B08D0FB6898
:101CAC009B899BB243F400539BB2FA6893810FE07B
:101CBC00FB689B899BB27B604DF6FF73C0F20003FF
:101CCC00796801EA03037B60FA6879680B469381B3
:101CDC0007F11407BD4680BC7047C04680B487B07E
:101CEC0000AF78600B467B8013467B704FF000038F
:101CFC00BB604FF00003FB604FF000033B614FF003
:101D0C0000037B617B687B617B88DBB24FEA5313FA
:101D1C00DBB2BB607B8803F01F03FB60FA684FF0FB
:101D2C00010303FA02F33B61BB68012B04D17B690D
:101D3C0003F10C037B610BE0BB68022B04D17B69C4
:101D4C0003F110037B6103E07B6903F114037B61F6
:101D5C007B78002B07D079697B691A683B6942EA6A
:101D6C0003030B6008E079697B691A683B696FEAC9
:101D7C00030302EA03030B6007F11C07BD4680BC9A
:101D8C007047C04680B485B000AFF8600B467B81CD
:101D9C00798979607A684FEAC2534FEAD3537B60F2
:101DAC00FA6879680B46938007F11407BD4680BC2E
:101DBC007047C04680B483B000AF78607B689B8866
:101DCC009BB23B603A684FEAC2534FEAD3533B6035
:101DDC003B68184607F10C07BD4680BC7047C046EF
:101DEC0080B485B000AF78600B467B804FF0000369
:101DFC00FB737B681B889AB27B8802EA03039BB255
:101E0C00002B03D04FF00103FB7302E04FF00003F3
:101E1C00FB73FB7B184607F11407BD4680BC70476B
:101E2C0080B487B000AF78600B467B804FF0000326
:101E3C00BB604FF00003FB604FF000033B614FF0C1
:101E4C000003FB757B88DBB24FEA5313DBB23B61BB
:101E5C007B8803F01F03FB60FA684FF0010303FA61
:101E6C0002F3FB603B69012B08D17B689B899BB219
:101E7C001A46FB6803EA0203FB6013E03B69022B82
:101E8C0008D17B681B8A9BB21A46FB6803EA0203E3
:101E9C00FB6007E07B689B8A9BB21A46FB6803EAEF
:101EAC000203FB607B884FEA13239BB2BB60BA68CA
:101EBC004FF0010303FA02F3BB607B681B889BB2F3
:101ECC001A46BB6803EA0203BB60FB68002B06D012
:101EDC00BB68002B03D04FF00103FB7502E04FF001
:101EEC000003FB75FB7D184607F11C07BD4680BC43
:101EFC007047C04680B485B000AF78600B467B80DD
:101F0C004FF00003BB814FF00003FB817B884FEA4D
:101F1C001323BB81BA894FF0010303FA02F3FB814F
:101F2C00FB896FEA03039BB27A68138007F11407ED
:101F3C00BD4680BC7047C04680B487B000AF7860A7
:101F4C004FF00003FB604FF000033B614FF00F03B9
:101F5C007B617B68DB78002B4AD04EF60053CEF2C7
:101F6C000003DB686FEA030303F4E0634FEA132317
:101F7C00FB60FB68C3F104033B61FA687B6923FADD
:101F8C0002F37B617B685B781A463B6902FA03F3C8
:101F9C00FB607B689B781A467B6902EA0302FB684C
:101FAC0043EA0203FB60FB684FEA0313FB604EF24B
:101FBC000012CEF200027B681B781946FB68DBB27C
:101FCC000A4482F800334EF20011CEF200017B6815
:101FDC001B784FEA5313DBB218467B681B7803F06F
:101FEC001F024FF0010303FA02F341F8203015E011
:101FFC004EF20011CEF200017B681B784FEA5313AE
:10200C00DBB218467B681B7803F01F024FF001030C
:10201C0003FA02F200F1200341F8232007F11C0718
:10202C00BD4680BC7047C04630B587B044F2050051
:10203C004FF00101FFF750F94FF480404FF00101D0
:10204C00FFF74AF94FF40073ADF814304FF0030367
:10205C008DF8163003F115038DF8173040F6000497
:10206C00C4F2010405AD20462946FFF78DF94FF463
:10207C008063ADF814304FF004038DF81730204610
:10208C002946FFF781F94FF416530193A3F5165324
:10209C00ADF80830ADF80A30ADF80C30ADF81030B2
:1020AC004FF00C03ADF80E3043F60004C4F20104FB
:1020BC00204601A9FFF7FAFC20464FF00101FFF77B
:1020CC00E5FD40F27C03C2F200034FF001021A70EE
:1020DC0007B030BD70B5064640F27C03C2F2000377
:1020EC001B780BB9FFF7A0FF0A2E03D14FF00D00A0
:1020FC00FFF7F0FF43F600031D46C4F201054FF055
:10210C00800428462146FFF76BFE0028F9D043F6E1
:10211C000000C4F20100F1B2FFF734FE70BDC046FE
:04212C00101C7047CC
:1021300011000100010038046054380400A24A0470
:102140000000000000000000010203040607080967
:10215000000000000102030401020304060708094D
:042160000204060867
:040000050800010CE2
:00000001FF
